:100000000C945D000C9485000C9485000C94850084
:100010000C9485000C9485000C9485000C9485004C
:100020000C9485000C9485000C9485000C9485003C
:100030000C9485000C9485000C9485000C9485002C
:100040000C94D3020C9485000C94A1020C947B02B6
:100050000C9485000C9485000C9485000C9485000C
:100060000C9485000C9485000000000024002700FB
:100070002A0000000000250028002B0004040404CE
:100080000404040402020202020203030303030342
:10009000010204081020408001020408102001021F
:1000A00004081020000000080002010000030407FB
:1000B0000000000000000000300411241FBECFEF3C
:1000C000D8E0DEBFCDBF11E0A0E0B1E0E0EAFCE0A7
:1000D00002C005900D92A631B107D9F721E0A6E143
:1000E000B1E001C01D92AE3BB207E1F710E0CDE5F3
:1000F000D0E004C02197FE010E944806CC35D1070C
:10010000C9F70E941D030C945D040C940000EBEAF7
:10011000F0E02491E7E9F0E09491E3E8F0E0E49185
:10012000EE23C9F0222339F0233001F1A8F4213065
:1001300019F1223029F1F0E0EE0FFF1FEE58FF4FCA
:10014000A591B4912FB7F894EC91811126C09095A8
:100150009E239C932FBF08952730A9F02830C9F023
:10016000243049F7209180002F7D03C0209180002A
:100170002F7720938000DFCF24B52F7724BDDBCFEE
:1001800024B52F7DFBCF2091B0002F772093B000B6
:10019000D2CF2091B0002F7DF9CF9E2BDACFFC017A
:1001A000538D448D252F30E0842F90E0821B930BDC
:1001B000541710F0CF96089501970895FC01918D82
:1001C000828D981761F0A28DAE0FBF2FB11D5D9685
:1001D0008C91928D9F5F9F73928F90E008958FEF27
:1001E0009FEF0895FC01918D828D981731F0828DDB
:1001F000E80FF11D858D90E008958FEF9FEF089532
:10020000FC01918D228D892F90E0805C9F4F821B95
:1002100091098F7399270895FC01A48DA80FB92F18
:10022000B11DA35ABF4F2C91848D90E001968F731E
:100230009927848FA689B7892C93A089B1898C913D
:1002400080648C93938D848D981306C00288F38903
:10025000E02D80818F7D80830895EF92FF920F9330
:100260001F93CF93DF93EC01F62E81E0888F9B8D57
:100270008C8D981316C0E889F989808185FF11C09B
:10028000EE89FF896083E889F989808180648083B1
:1002900081E090E0DF91CF911F910F91FF90EF905F
:1002A00008950B8D10E00F5F1F4F0F731127E02E85
:1002B0008C8D8E110CC00FB607FCFACFE889F98936
:1002C000808185FFF5CFCE010E940C01F1CFEB8D2F
:1002D000EC0FFD2FF11DE35AFF4FF0820B8FEA89DF
:1002E000FB8980818062D3CFCF93DF93EC01888D2F
:1002F0008823B9F0AA89BB89E889F9898C9185FDA1
:1003000003C0808186FD0DC00FB607FCF7CF8C912E
:1003100085FFF2CF808185FFEDCFCE010E940C01D9
:10032000E9CFDF91CF91089581E291E00E94000131
:1003300021E0892B09F420E0822F089580E090E0ED
:10034000892B29F00E94940181110C9400000895DA
:10035000AF92BF92CF92DF92EF92FF920F931F93D3
:10036000CF93DF936C017B018B01040F151FEB0111
:100370005E01AE18BF08C017D10759F06991D601C8
:10038000ED91FC910190F081E02DC6010995892B3A
:1003900079F7C501DF91CF911F910F91FF90EF90F9
:1003A000DF90CF90BF90AF9008953FB7F8948091C1
:1003B0001B0190911C01A0911D01B0911E0126B559
:1003C000A89B05C02F3F19F00196A11DB11D3FBF8D
:1003D000BA2FA92F982F8827BC01CD01620F711D5C
:1003E000811D911D42E0660F771F881F991F4A9556
:1003F000D1F708958F929F92AF92BF92CF92DF92E2
:10040000EF92FF926B017C010E94D5014B015C01D0
:10041000C114D104E104F104B9F00E94D5016819B6
:1004200079098A099B09683E73408105910580F32B
:1004300021E0C21AD108E108F10888EE880E83E0B5
:10044000981EA11CB11CE4CFFF90EF90DF90CF90DD
:10045000BF90AF909F908F9008958F929F92AF9290
:10046000BF920F931F93CF93DF93CDB7DEB7A197C2
:100470000FB6F894DEBF0FBECDBF19A2423008F40C
:100480004AE08E010F5D1F4F842E912CB12CA12CC0
:10049000A50194010E941206E62FB901CA01EA30B3
:1004A00044F5E05DD801EE938D01232B242B252B01
:1004B00079F790E080E0109769F0FD01019000204D
:1004C000E9F73197AF014A1B5B0BBD0181E291E077
:1004D0000E94A801A1960FB6F894DEBF0FBECDBF53
:1004E000DF91CF911F910F91BF90AF909F908F9010
:1004F0000895E95CD7CF1F920F920FB60F92112487
:100500002F933F934F935F936F937F938F939F931B
:10051000AF93BF93EF93FF9381E291E00E940C01B0
:10052000FF91EF91BF91AF919F918F917F916F91CB
:100530005F914F913F912F910F900FBE0F901F90A1
:1005400018951F920F920FB60F9211242F938F932D
:100550009F93EF93FF93E0913101F09132018081FD
:10056000E0913701F091380182FD1BC090818091AC
:100570003A018F5F8F7320913B01821741F0E09128
:100580003A01F0E0EF5DFE4F958F80933A01FF91C5
:10059000EF919F918F912F910F900FBE0F901F9011
:1005A00018958081F4CF1F920F920FB60F921124ED
:1005B0002F933F938F939F93AF93BF938091170196
:1005C00090911801A0911901B0911A013091160172
:1005D00023E0230F2D3758F50196A11DB11D20935F
:1005E00016018093170190931801A0931901B093FD
:1005F0001A0180911B0190911C01A0911D01B091E5
:100600001E010196A11DB11D80931B0190931C0139
:10061000A0931D01B0931E01BF91AF919F918F9147
:100620003F912F910F900FBE0F901F90189526E8C5
:10063000230F0296A11DB11DD2CF789484B582609C
:1006400084BD84B5816084BD85B5826085BD85B576
:10065000816085BD80916E00816080936E001092F4
:10066000810080918100826080938100809181006F
:100670008160809381008091800081608093800000
:100680008091B10084608093B1008091B00081605E
:100690008093B00080917A00846080937A0080918A
:1006A0007A00826080937A0080917A0081608093E2
:1006B0007A0080917A00806880937A001092C1005D
:1006C000E7E9F0E02491E3E8F0E08491882399F0F1
:1006D00090E0880F991FFC01E859FF4FA591B49154
:1006E000FC01EE58FF4F859194918FB7F894EC91EF
:1006F000E22BEC938FBFE0913101F091320182E067
:100700008083E0912D01F0912E011082E0912F0164
:10071000F09130018FEC808310923901E091350126
:10072000F091360186E08083E0913301F09134014D
:10073000808180618083E0913301F0913401808178
:1007400088608083E0913301F0913401808180687A
:100750008083E0913301F091340180818F7D80832B
:1007600080E4B82E9AE0A92EC8EED3E000E010E0B5
:10077000B0927C0080917A00806480937A008091AE
:100780007A0086FDFCCF90917800809179008927CE
:1007900098278927A89EB001A99E700D1124072EC5
:1007A000000C880B990B0E94050520E030E040E822
:1007B0005AE30E94910520E030E040E85FE30E94A8
:1007C00061040E94CD04AB01CE01BA010E94FE0576
:1007D0007093200160931F016B01072E000CEE083F
:1007E000FF0877FF39C06DE281E291E00E942D01A0
:1007F00066277727CB016C197D098E099F094AE08E
:100800000E942D0242E050E062E171E081E291E05D
:100810000E94A80181E00E948700C0901F01D09033
:1008200020010D2C000CEE08FF08C701B6010E9444
:10083000FA0180E00E948700C701B6010E94FA0118
:100840000115110509F494CF0E949401882309F43D
:100850008FCF0E9400008CCF4AE0C701B601D0CFF5
:10086000E1E2F1E01382128288EE93E0A0E0B0E0D2
:1008700084839583A683B78384E091E0918380830A
:1008800085EC90E09587848784EC90E09787868755
:1008900080EC90E0918B808B81EC90E0938B828B4D
:1008A00082EC90E0958B848B86EC90E0978B868B26
:1008B000118E128E138E148E0895F8940C944E0699
:1008C0005058BB27AA270E9478040C9457050E9411
:1008D000490538F00E94500520F039F49F3F19F483
:1008E00026F40C9446050EF4E095E7FB0C944005C5
:1008F000E92F0E94680558F3BA1762077307840747
:10090000950720F079F4A6F50C948A050EF4E0958D
:100910000B2EBA2FA02D0B01B90190010C01CA01B9
:10092000A0011124FF27591B99F0593F50F4503E64
:1009300068F11A16F040A22F232F342F4427585F56
:10094000F3CF469537952795A795F0405395C9F76E
:100950007EF41F16BA0B620B730B840BBAF0915026
:10096000A1F0FF0FBB1F661F771F881FC2F70EC0C5
:10097000BA0F621F731F841F48F487957795679598
:10098000B795F7959E3F08F0B0CF9395880F08F084
:100990009927EE0F9795879508950E94D40468943F
:1009A000B1110C948B0508950E94700588F09F5733
:1009B00098F0B92F9927B751B0F0E1F0660F771F83
:1009C000881F991F1AF0BA95C9F714C0B13091F079
:1009D0000E948A05B1E008950C948A05672F782F4C
:1009E0008827B85F39F0B93FCCF38695779567953E
:1009F000B395D9F73EF490958095709561957F4FAA
:100A00008F4F9F4F0895E89409C097FB3EF490954F
:100A10008095709561957F4F8F4F9F4F9923A9F0D7
:100A2000F92F96E9BB279395F69587957795679566
:100A3000B795F111F8CFFAF4BB0F11F460FF1BC0AA
:100A40006F5F7F4F8F4F9F4F16C0882311F096E93D
:100A500011C0772321F09EE8872F762F05C06623EB
:100A600071F096E8862F70E060E02AF09A95660FA4
:100A7000771F881FDAF7880F9695879597F908955D
:100A800097F99F6780E870E060E008959FEF80EC41
:100A9000089500240A9416161706180609060895E4
:100AA00000240A9412161306140605060895092E4A
:100AB0000394000C11F4882352F0BB0F40F4BF2BB9
:100AC00011F460FF04C06F5F7F4F8F4F9F4F0895F9
:100AD00057FD9058440F551F59F05F3F71F04795EF
:100AE000880F97FB991F61F09F3F79F087950895D4
:100AF000121613061406551FF2CF4695F1DF08C0F3
:100B0000161617061806991FF1CF8695710561050F
:100B100008940895E894BB2766277727CB0197F9B7
:100B200008950E94A4050C9457050E94490538F0C9
:100B30000E94500520F0952311F00C9440050C9470
:100B4000460511240C948B050E94680570F3959F4F
:100B5000C1F3950F50E0551F629FF001729FBB27B4
:100B6000F00DB11D639FAA27F00DB11DAA1F649F50
:100B70006627B00DA11D661F829F2227B00DA11D03
:100B8000621F739FB00DA11D621F839FA00D611D89
:100B9000221F749F3327A00D611D231F849F600DAA
:100BA000211D822F762F6A2F11249F5750409AF0D3
:100BB000F1F088234AF0EE0FFF1FBB1F661F771F5F
:100BC000881F91505040A9F79E3F510580F00C942A
:100BD00040050C948B055F3FE4F3983ED4F3869573
:100BE00077956795B795F795E7959F5FC1F7FE2BCA
:100BF000880F911D9695879597F9089597FB072E75
:100C000016F4009407D077FD09D00E94340607FC43
:100C100005D03EF4909581959F4F0895709561950C
:100C20007F4F0895A1E21A2EAA1BBB1BFD010DC028
:100C3000AA1FBB1FEE1FFF1FA217B307E407F5078C
:100C400020F0A21BB30BE40BF50B661F771F881F68
:100C5000991F1A9469F760957095809590959B01FE
:100C6000AC01BD01CF010895AA1BBB1B51E107C018
:100C7000AA1FBB1FA617B70710F0A61BB70B881F2C
:100C8000991F5A95A9F780959095BC01CD010895BB
:100C9000EE0FFF1F0590F491E02D0994F894FFCF1B
:100CA000000000002D01A801CF0074010001DE004A
:060CB000F2000D0A000035
:00000001FF
