:100000000C945D000C9485000C9485000C94850084
:100010000C9485000C9485000C9485000C9485004C
:100020000C9485000C9485000C9485000C9485003C
:100030000C9485000C9485000C9485000C9485002C
:100040000C94F6020C9485000C94C4020C949E024D
:100050000C9485000C9485000C9485000C9485000C
:100060000C9485000C94850000000008000201003B
:100070000003040700000000000000000000000072
:10008000250028002B0000000000240027002A0083
:10009000040404040404040402020202020203032E
:1000A0000303030301020408102040800102040836
:1000B0001020010204081020D50411241FBECFEF28
:1000C000D8E0DEBFCDBF11E0A0E0B1E0EAEEFDE098
:1000D00002C005900D92A631B107D9F721E0A6E143
:1000E000B1E001C01D92AE3BB207E1F710E0CDE5F3
:1000F000D0E004C02197FE010E94ED06CC35D10767
:10010000C9F70E9440030C9402050C94000090E093
:10011000FC01EC55FF4F249180579F4FFC018491C7
:10012000882399F090E0880F991FFC01EA57FF4F50
:10013000A591B491FC01E458FF4F859194918FB73C
:10014000F894EC91E22BEC938FBF0895FC01538D52
:10015000448D252F30E0842F90E0821B930B5417A1
:1001600010F0CF96089501970895FC01918D828D2E
:10017000981761F0A28DAE0FBF2FB11D5D968C91C7
:10018000928D9F5F9F73928F90E008958FEF9FEF06
:100190000895FC01918D828D981731F0828DE80FC2
:1001A000F11D858D90E008958FEF9FEF0895FC017C
:1001B000918D228D892F90E0805C9F4F821B910949
:1001C0008F7399270895FC01A48DA80FB92FB11D35
:1001D000A35ABF4F2C91848D90E001968F7399277D
:1001E000848FA689B7892C93A089B1898C9180646A
:1001F0008C93938D848D981306C00288F389E02D2B
:1002000080818F7D80830895EF92FF920F931F93DB
:10021000CF93DF93EC01F62E81E0888F9B8D8C8D40
:10022000981316C0E889F989808185FF11C0EE898D
:10023000FF896083E889F98980818064808381E017
:1002400090E0DF91CF911F910F91FF90EF90089573
:100250000B8D10E00F5F1F4F0F731127E02E8C8D59
:100260008E110CC00FB607FCFACFE889F98980819E
:1002700085FFF5CFCE010E94E300F1CFEB8DEC0FAF
:10028000FD2FF11DE35AFF4FF0820B8FEA89FB89A6
:1002900080818062D3CFCF93DF93EC01888D882358
:1002A000B9F0AA89BB89E889F9898C9185FD03C0D9
:1002B000808186FD0DC00FB607FCF7CF8C9185FFBE
:1002C000F2CF808185FFEDCFCE010E94E300E9CF20
:1002D000DF91CF91089581E291E00E94D70021E063
:1002E000892B09F420E0822F089580E090E0892B8B
:1002F00029F00E946B0181110C9400000895AF92C7
:10030000BF92CF92DF92EF92FF920F931F93CF9302
:10031000DF936C017B018B01040F151FEB015E0164
:10032000AE18BF08C017D10759F06991D601ED91F9
:10033000FC910190F081E02DC6010995892B79F798
:10034000C501DF91CF911F910F91FF90EF90DF904A
:10035000CF90BF90AF90089590E0FC01E859FF4F17
:100360002491FC01EC55FF4F3491FC01E057FF4F05
:10037000E491EE23C9F0222339F0233001F1A8F4EF
:10038000213019F1223029F1F0E0EE0FFF1FE4587F
:10039000FF4FA591B4918FB7F894EC91611126C0ED
:1003A00030953E233C938FBF08952730A9F0283025
:1003B000C9F0243049F7809180008F7D03C080917F
:1003C00080008F7780938000DFCF84B58F7784BDE6
:1003D000DBCF84B58F7DFBCF8091B0008F7780938A
:1003E000B000D2CF8091B0008F7DF9CF3E2BDACF15
:1003F0003FB7F89480911B0190911C01A0911D01C1
:10040000B0911E0126B5A89B05C02F3F19F001969B
:10041000A11DB11D3FBFBA2FA92F982F8827BC015E
:10042000CD01620F711D811D911D42E0660F771F86
:10043000881F991F4A95D1F708958F929F92AF9286
:10044000BF92CF92DF92EF92FF926B017C010E94EC
:10045000F8014B015C01C114D104E104F104B9F0CD
:100460000E94F801681979098A099B09683E73405E
:100470008105910580F321E0C21AD108E108F10855
:1004800088EE880E83E0981EA11CB11CE4CFFF907B
:10049000EF90DF90CF90BF90AF909F908F90089596
:1004A0008F929F92AF92BF920F931F93CF93DF9340
:1004B000CDB7DEB7A1970FB6F894DEBF0FBECDBFA4
:1004C00019A2423008F44AE08E010F5D1F4F842EBE
:1004D000912CB12CA12CA50194010E94B706E62F06
:1004E000B901CA01EA3044F5E05DD801EE938D010F
:1004F000232B242B252B79F790E080E0109769F0CF
:10050000FD0101900020E9F73197AF014A1B5B0B19
:10051000BD0181E291E00E947F01A1960FB6F8949F
:10052000DEBF0FBECDBFDF91CF911F910F91BF9066
:10053000AF909F908F900895E95CD7CF1F920F9254
:100540000FB60F9211242F933F934F935F936F93A6
:100550007F938F939F93AF93BF93EF93FF9381E22A
:1005600091E00E94E300FF91EF91BF91AF919F91C5
:100570008F917F916F915F914F913F912F910F904C
:100580000FBE0F901F9018951F920F920FB60F92EB
:1005900011242F938F939F93EF93FF93E091310159
:1005A000F09132018081E0913701F091380182FDB4
:1005B0001BC0908180913A018F5F8F7320913B0126
:1005C000821741F0E0913A01F0E0EF5DFE4F958F28
:1005D00080933A01FF91EF919F918F912F910F900E
:1005E0000FBE0F901F9018958081F4CF1F920F922D
:1005F0000FB60F9211242F933F938F939F93AF9336
:10060000BF938091170190911801A0911901B091A9
:100610001A013091160123E0230F2D3758F501966A
:10062000A11DB11D2093160180931701909318010D
:10063000A0931901B0931A0180911B0190911C01A4
:10064000A0911D01B0911E010196A11DB11D8093C5
:100650001B0190931C01A0931D01B0931E01BF913B
:10066000AF919F918F913F912F910F900FBE0F905F
:100670001F90189526E8230F0296A11DB11DD2CF19
:10068000789484B5826084BD84B5816084BD85B56D
:10069000826085BD85B5816085BD80916E00816079
:1006A00080936E001092810080918100826080931F
:1006B0008100809181008160809381008091800021
:1006C0008160809380008091B10084608093B1004C
:1006D0008091B00081608093B00080917A00846046
:1006E00080937A0080917A00826080937A00809172
:1006F0007A00816080937A0080917A00806880938C
:100700007A001092C1008BE00E9487008AE00E946C
:10071000870089E00E94870088E00E94870087E0C8
:100720000E94870086E00E94870085E00E94870083
:1007300084E00E94870083E00E94870082E00E949C
:100740008700E0913101F091320182E08083E091F5
:100750002D01F0912E011082E0912F01F0913001D6
:100760008FEC808310923901E0913501F0913601D0
:1007700086E08083E0913301F091340180818061D3
:100780008083E0913301F09134018081886080831F
:10079000E0913301F0913401808180688083E091A1
:1007A0003301F091340180818F7D808380E4782E45
:1007B00092E3692E08EE13E02AE0E22EF12C30E0FD
:1007C000C32E30E0D32E70927C0080917A0080643A
:1007D00080937A0080917A0086FDFCCF909178001A
:1007E00080917900892798278927689EB001699EA2
:1007F000700D1124072E000C880B990B0E94AA057E
:1008000020E030E040E85AE30E94360620E030E085
:1008100040E85FE30E9406050E947205AB01C80133
:10082000BA010E94A3067093200160931F014B013F
:10083000072E000CAA08BB0877FFB3C06DE281E267
:1008400091E00E94040166277727CB016819790996
:100850008A099B094AE00E94500242E050E062E1AE
:1008600071E081E291E00E947F0161E08BE00E94F3
:10087000AC01C0911F01D0912001CE01B7010E94AF
:10088000A3064B01770FAA08BB08C501B4010E945B
:100890001D0261E08AE00E94AC01C501B4010E9422
:1008A0001D0261E089E00E94AC01C501B4010E9413
:1008B0001D0261E088E00E94AC01C501B4010E9404
:1008C0001D0261E087E00E94AC01C501B4010E94F5
:1008D0001D0261E086E00E94AC01C501B4010E94E6
:1008E0001D0261E085E00E94AC01C501B4010E94D7
:1008F0001D0261E084E00E94AC01C501B4010E94C8
:100900001D0261E083E00E94AC01C501B4010E94B8
:100910001D0261E082E00E94AC01C501B4010E94A9
:100920001D024E01DD0FAA08BB08C501B4010E94DB
:100930001D0260E08BE00E94AC0160E08AE00E9452
:10094000AC0160E089E00E94AC0160E088E00E94B8
:10095000AC0160E087E00E94AC0160E086E00E94AC
:10096000AC0160E085E00E94AC0160E084E00E94A0
:10097000AC0160E083E00E94AC0160E082E00E9494
:10098000AC01C501B4010E941D02C114D10409F4D7
:100990001ACF0E946B01882309F415CF0E94000032
:1009A00012CF4AE0C501B40156CFE1E2F1E0138273
:1009B000128288EE93E0A0E0B0E084839583A68362
:1009C000B78384E091E09183808385EC90E0958704
:1009D000848784EC90E09787868780EC90E0918B09
:1009E000808B81EC90E0938B828B82EC90E0958BF6
:1009F000848B86EC90E0978B868B118E128E138EF3
:100A0000148E0895F8940C94F3065058BB27AA2727
:100A10000E941D050C94FC050E94EE0538F00E9412
:100A2000F50520F039F49F3F19F426F40C94EB05FA
:100A30000EF4E095E7FB0C94E505E92F0E940D0606
:100A400058F3BA17620773078407950720F079F403
:100A5000A6F50C942F060EF4E0950B2EBA2FA02DC0
:100A60000B01B90190010C01CA01A0011124FF275B
:100A7000591B99F0593F50F4503E68F11A16F04056
:100A8000A22F232F342F4427585FF3CF4695379555
:100A90002795A795F0405395C9F77EF41F16BA0B1A
:100AA000620B730B840BBAF09150A1F0FF0FBB1FC8
:100AB000661F771F881FC2F70EC0BA0F621F731F11
:100AC000841F48F4879577956795B795F7959E3F6E
:100AD00008F0B0CF9395880F08F09927EE0F9795FF
:100AE000879508950E9479056894B1110C94300699
:100AF00008950E94150688F09F5798F0B92F9927FE
:100B0000B751B0F0E1F0660F771F881F991F1AF0F8
:100B1000BA95C9F714C0B13091F00E942F06B1E028
:100B200008950C942F06672F782F8827B85F39F027
:100B3000B93FCCF3869577956795B395D9F73EF491
:100B400090958095709561957F4F8F4F9F4F089539
:100B5000E89409C097FB3EF4909580957095619557
:100B60007F4F8F4F9F4F9923A9F0F92F96E9BB270D
:100B70009395F695879577956795B795F111F8CF89
:100B8000FAF4BB0F11F460FF1BC06F5F7F4F8F4FF4
:100B90009F4F16C0882311F096E911C0772321F0EA
:100BA0009EE8872F762F05C0662371F096E8862F82
:100BB00070E060E02AF09A95660F771F881FDAF7D9
:100BC000880F9695879597F9089597F99F6780E81C
:100BD00070E060E008959FEF80EC089500240A948F
:100BE0001616170618060906089500240A94121608
:100BF0001306140605060895092E0394000C11F43B
:100C0000882352F0BB0F40F4BF2B11F460FF04C0E7
:100C10006F5F7F4F8F4F9F4F089557FD9058440F40
:100C2000551F59F05F3F71F04795880F97FB991F4B
:100C300061F09F3F79F08795089512161306140608
:100C4000551FF2CF4695F1DF08C016161706180695
:100C5000991FF1CF86957105610508940895E89470
:100C6000BB2766277727CB0197F908950E9449068D
:100C70000C94FC050E94EE0538F00E94F50520F06A
:100C8000952311F00C94E5050C94EB0511240C94BC
:100C900030060E940D0670F3959FC1F3950F50E04A
:100CA000551F629FF001729FBB27F00DB11D639F1E
:100CB000AA27F00DB11DAA1F649F6627B00DA11DC4
:100CC000661F829F2227B00DA11D621F739FB00D6A
:100CD000A11D621F839FA00D611D221F749F3327DA
:100CE000A00D611D231F849F600D211D822F762F73
:100CF0006A2F11249F5750409AF0F1F088234AF050
:100D0000EE0FFF1FBB1F661F771F881F91505040BB
:100D1000A9F79E3F510580F00C94E5050C94300630
:100D20005F3FE4F3983ED4F3869577956795B79542
:100D3000F795E7959F5FC1F7FE2B880F911D96955C
:100D4000879597F9089597FB072E16F4009407D01E
:100D500077FD09D00E94D90607FC05D03EF4909596
:100D600081959F4F0895709561957F4F0895A1E2F9
:100D70001A2EAA1BBB1BFD010DC0AA1FBB1FEE1F15
:100D8000FF1FA217B307E407F50720F0A21BB30B60
:100D9000E40BF50B661F771F881F991F1A9469F7DC
:100DA00060957095809590959B01AC01BD01CF0138
:100DB0000895AA1BBB1B51E107C0AA1FBB1FA617A2
:100DC000B70710F0A61BB70B881F991F5A95A9F7F4
:100DD00080959095BC01CD010895EE0FFF1F059001
:0A0DE000F491E02D0994F894FFCF80
:100DEA000000000004017F01A6004B01D700B500F6
:060DFA00C9000D0A000013
:00000001FF
