:100000000C9435000C945D000C945D000C945D0024
:100010000C945D000C945D000C945D000C945D00EC
:100020000C945D000C945D000C945D000C945D00DC
:100030000C945D000C945D000C945D000C945D00CC
:100040000C940F030C945D000C94DD020C94B70229
:100050000C945D000C945D000C945D000C945D00AC
:100060000C945D000C945D00830411241FBECFEF3F
:10007000D8E0DEBFCDBF11E0A0E0B1E0E2E3FEE0FA
:1000800002C005900D92A833B107D9F721E0A8E38B
:10009000B1E001C01D92A23EB207E1F710E0C5E356
:1000A000D0E004C02197FE010E941107C433D1079C
:1000B000C9F70E9459030C94B0040C940000FC0191
:1000C000538D448D252F30E0842F90E0821B930BBD
:1000D000541710F0CF96089501970895FC01918D63
:1000E000828D981761F0A28DAE0FBF2FB11D5D9666
:1000F0008C91928D9F5F9F73928F90E008958FEF08
:100100009FEF0895FC01918D828D981731F0828DBB
:10011000E80FF11D858D90E008958FEF9FEF089512
:10012000FC01918D228D892F90E0805C9F4F821B76
:1001300091098F7399270895FC01A48DA80FB92FF9
:10014000B11DA35ABF4F2C91848D90E001968F73FF
:100150009927848FA689B7892C93A089B1898C911E
:1001600080648C93938D848D981306C00288F389E4
:10017000E02D80818F7D80830895EF92FF920F9311
:100180001F93CF93DF93EC01F62E81E0888F9B8D38
:100190008C8D981316C0E889F989808185FF11C07C
:1001A000EE89FF896083E889F98980818064808392
:1001B00081E090E0DF91CF911F910F91FF90EF9040
:1001C00008950B8D10E00F5F1F4F0F731127E02E66
:1001D0008C8D8E110CC00FB607FCFACFE889F98917
:1001E000808185FFF5CFCE010E949C00F1CFEB8D81
:1001F000EC0FFD2FF11DE35AFF4FF0820B8FEA89C0
:10020000FB8980818062D3CFCF93DF93EC01888D0F
:100210008823B9F0AA89BB89E889F9898C9185FD81
:1002200003C0808186FD0DC00FB607FCF7CF8C910F
:1002300085FFF2CF808185FFEDCFCE010E949C002B
:10024000E9CFDF91CF91089585E491E00E9490007D
:1002500021E0892B09F420E0822F089580E090E0CE
:10026000892B29F00E94240181110C94000008952B
:10027000AF92BF92CF92DF92EF92FF920F931F93B4
:10028000CF93DF936C017B018B01040F151FEB01F2
:100290005E01AE18BF08C017D10759F06991D601A9
:1002A000ED91FC910190F081E02DC6010995892B1B
:1002B00079F7C501DF91CF911F910F91FF90EF90DA
:1002C000DF90CF90BF90AF9008953FB7F8948091A2
:1002D0003D0190913E01A0913F01B091400126B5B2
:1002E000A89B05C02F3F19F00196A11DB11D3FBF6E
:1002F000BA2FA92F982F8827BC01CD01620F711D3D
:10030000811D911D42E0660F771F881F991F4A9536
:10031000D1F70895FC0101900020E9F73197AF0172
:10032000481B590BBC0185E491E00C9438018F9275
:100330009F92AF92BF920F931F93CF93DF93CDB74E
:10034000DEB7A1970FB6F894DEBF0FBECDBF19A2DE
:10035000423008F44AE08E010F5D1F4F842E912C2D
:10036000B12CA12CA50194010E94EF06E62FB90142
:10037000CA01EA30F4F4E05DD801EE938D01232B3D
:10038000242B252B79F790E080E0109719F0CD0110
:100390000E948A01A1960FB6F894DEBF0FBECDBFB2
:1003A000DF91CF911F910F91BF90AF909F908F9051
:1003B0000895E95CE1CF4F925F926F927F928F92A6
:1003C0009F92AF92BF92CF92DF92EF92FF920F93E4
:1003D0001F93CF936B017C01742EAC019B010E9493
:1003E000EA06882399F082E191E0CF911F910F9165
:1003F000FF90EF90DF90CF90BF90AF909F908F9045
:100400007F906F905F904F900C948A014601570146
:10041000E894B7F82FEF3FEF4FE75FE7C501B4016E
:100420000E94EA0681110DC02FEF3FEF4FE75FE713
:10043000C501B4010E94200518161CF486E191E064
:10044000D4CF2FEF3FEF4FE75FE4C701B6010E9423
:10045000780618161CF48AE191E0C7CF2FEF3FEF22
:100460004FE75FECC701B6010E94200587FDF3CF7F
:1004700020E030E0A901C701B6010E94200510E08C
:1004800000E087FF0AC06DE285E491E00E94BD00B4
:100490008C01F7FAF094F7F8F094C0E060E070E0B7
:1004A00080E09FE37C1641F020E030E040E251E440
:1004B0000E942505CF5FF6CFA70196010E94B404E4
:1004C0002B013C010E9497054B015C014AE00E9410
:1004D00097017C01E00EF11ECC23C1F1C501B401EE
:1004E0000E94C6059B01AC01C301B2010E94B30486
:1004F0004B015C016EE285E491E00E94BD00E80ED4
:10050000F91EC15018F120E030E040E251E4C5018D
:10051000B4010E947D062B013C010E9497054B010E
:10052000B12CA12C4AE0C501B4010E949701E80E4C
:10053000F91EC501B4010E94C6059B01AC01C301AF
:10054000B2010E94B3044B015C01DBCFC701CF9124
:100550001F910F91FF90EF90DF90CF90BF90AF90E1
:100560009F908F907F906F905F904F9008951F9213
:100570000F920FB60F9211242F933F934F935F93D7
:100580006F937F938F939F93AF93BF93EF93FF935B
:1005900085E491E00E949C00FF91EF91BF91AF91A3
:1005A0009F918F917F916F915F914F913F912F918B
:1005B0000F900FBE0F901F9018951F920F920FB6BD
:1005C0000F9211242F938F939F93EF93FF93E091BA
:1005D0005501F09156018081E0915B01F0915C0141
:1005E00082FD1BC0908180915E018F5F8F7320918F
:1005F0005F01821741F0E0915E01F0E0EB5BFE4F9E
:10060000958F80935E01FF91EF919F918F912F9134
:100610000F900FBE0F901F9018958081F4CF1F92FE
:100620000F920FB60F9211242F933F938F939F93A6
:10063000AF93BF938091390190913A01A0913B0112
:10064000B0913C013091380123E0230F2D3758F54C
:100650000196A11DB11D209338018093390190931B
:100660003A01A0933B01B0933C0180913D019091F0
:100670003E01A0913F01B09140010196A11DB11D25
:1006800080933D0190933E01A0933F01B0934001C0
:10069000BF91AF919F918F913F912F910F900FBE7E
:1006A0000F901F90189526E8230F0296A11DB11DEB
:1006B000D2CF789484B5826084BD84B5816084BDD6
:1006C00085B5826085BD85B5816085BD80916E00F0
:1006D000816080936E001092810080918100826021
:1006E000809381008091810081608093810080915E
:1006F00080008160809380008091B100846080934D
:10070000B1008091B00081608093B00080917A0048
:10071000846080937A0080917A00826080937A006E
:1007200080917A00816080937A0080917A0080685D
:1007300080937A001092C100E0915501F09156012A
:1007400082E08083E0915101F09152011082E091AA
:100750005301F09154018FEC808310925D01E09180
:100760005901F0915A0186E08083E0915701F091A0
:100770005801808180618083E0915701F091580198
:10078000808188608083E0915701F09158018081D9
:1007900080688083E0915701F091580180818F7DBE
:1007A000808310E4C0E0D0E010937C0080917A0058
:1007B000806480937A0080917A0086FDFCCF8091DE
:1007C000780060917900762F682F072E000C880B37
:1007D000990B0E94C80520E030E040EA50E40E94F6
:1007E0007D0620E030E040E85AE30E947D0620E0EC
:1007F00030E040E05FE30E94B30420E030E048ECEA
:1008000052E40E947D064B015C0120E030E040E1B3
:1008100051E40E947D0620E030E040EA50E40E946E
:10082000250520E030E040E052E40E94B4046B0172
:100830007C01C0924101D0924201E0924301F092CA
:10084000440120E030E040EA52E40E9478061816A5
:1008500054F020E030E040E752E4C701B6010E94C6
:10086000200587FF20C042E0C501B4010E94DB01E2
:100870008EE191E00E948A0189E291E00E948A0162
:100880006091410170914201809143019091440136
:1008900042E00E94DB018CE291E00E948A0189E241
:1008A00091E00E948A010E9465014B015C0188EE83
:1008B000C82E83E0D82EE12CF12C0E946501681926
:1008C00079098A099B09683E734081059105A8F35F
:1008D00021E0C21AD108E108F10888EE880E83E011
:1008E000981EA11CB11CC114D104E104F10429F724
:1008F000209709F459CF0E942401882309F454CF8A
:100900000E94000051CFE5E4F1E01382128288EEEC
:1009100093E0A0E0B0E084839583A683B78384E06E
:1009200091E09183808385EC90E09587848784ECC7
:1009300090E09787868780EC90E0918B808B81ECAC
:1009400090E0938B828B82EC90E0958B848B86EC8D
:1009500090E0978B868B118E128E138E148E0895D5
:10096000F8940C9417075058BB27AA270E94CB0471
:100970000C943E060E94300638F00E94370620F0A4
:1009800039F49F3F19F426F40C942D060EF4E095EB
:10099000E7FB0C942706E92F0E944F0658F3BA177D
:1009A000620773078407950720F079F4A6F50C9485
:1009B00071060EF4E0950B2EBA2FA02D0B01B90194
:1009C00090010C01CA01A0011124FF27591B99F0C5
:1009D000593F50F4503E68F11A16F040A22F232FD1
:1009E000342F4427585FF3CF469537952795A79521
:1009F000F0405395C9F77EF41F16BA0B620B730BC8
:100A0000840BBAF09150A1F0FF0FBB1F661F771F38
:100A1000881FC2F70EC0BA0F621F731F841F48F4ED
:100A2000879577956795B795F7959E3F08F0B0CF76
:100A30009395880F08F09927EE0F9795879508955D
:100A40000E94030608F481E008950E9439050C9481
:100A50003E060E94370658F00E94300640F029F406
:100A60005F3F29F00C94270651110C9472060C94E8
:100A70002D060E944F0668F39923B1F3552391F395
:100A8000951B550BBB27AA2762177307840738F0FD
:100A90009F5F5F4F220F331F441FAA1FA9F335D05A
:100AA0000E2E3AF0E0E832D091505040E695001C0E
:100AB000CAF72BD0FE2F29D0660F771F881FBB1FC8
:100AC000261737074807AB07B0E809F0BB0B802DA6
:100AD000BF01FF2793585F4F3AF09E3F510578F0D2
:100AE0000C9427060C9472065F3FE4F3983ED4F30F
:100AF000869577956795B795F7959F5FC9F7880FA6
:100B0000911D9695879597F90895E1E0660F771FF7
:100B1000881FBB1F621773078407BA0720F0621B88
:100B2000730B840BBA0BEE1F88F7E09508950E94B3
:100B3000570688F09F5798F0B92F9927B751B0F012
:100B4000E1F0660F771F881F991F1AF0BA95C9F751
:100B500014C0B13091F00E947106B1E008950C9478
:100B60007106672F782F8827B85F39F0B93FCCF32B
:100B7000869577956795B395D9F73EF490958095CE
:100B8000709561957F4F8F4F9F4F0895E89409C0EE
:100B900097FB3EF490958095709561957F4F8F4FB0
:100BA0009F4F9923A9F0F92F96E9BB279395F695C6
:100BB000879577956795B795F111F8CFFAF4BB0F44
:100BC00011F460FF1BC06F5F7F4F8F4F9F4F16C0A8
:100BD000882311F096E911C0772321F09EE8872F32
:100BE000762F05C0662371F096E8862F70E060E0EE
:100BF0002AF09A95660F771F881FDAF7880F969567
:100C0000879597F90895990F0008550FAA0BE0E80A
:100C1000FEEF16161706E807F907C0F012161306BE
:100C2000E407F50798F0621B730B840B950B39F4FE
:100C30000A2661F0232B242B252B21F408950A2664
:100C400009F4A140A6958FEF811D811D089597F9A4
:100C50009F6780E870E060E008959FEF80EC089562
:100C600000240A941616170618060906089500248B
:100C70000A9412161306140605060895092E039405
:100C8000000C11F4882352F0BB0F40F4BF2B11F479
:100C900060FF04C06F5F7F4F8F4F9F4F089557FDD8
:100CA0009058440F551F59F05F3F71F04795880FDA
:100CB00097FB991F61F09F3F79F087950895121671
:100CC00013061406551FF2CF4695F1DF08C016161D
:100CD00017061806991FF1CF8695710561050894CE
:100CE0000895E894BB2766277727CB0197F90895E5
:100CF0000E94030608F48FEF08950E9490060C945A
:100D00003E060E94300638F00E94370620F09523F8
:100D100011F00C9427060C942D0611240C947206E5
:100D20000E944F0670F3959FC1F3950F50E0551F39
:100D3000629FF001729FBB27F00DB11D639FAA2730
:100D4000F00DB11DAA1F649F6627B00DA11D661F7F
:100D5000829F2227B00DA11D621F739FB00DA11DA0
:100D6000621F839FA00D611D221F749F3327A00D5A
:100D7000611D231F849F600D211D822F762F6A2FF6
:100D800011249F5750409AF0F1F088234AF0EE0F5B
:100D9000FF1FBB1F661F771F881F91505040A9F788
:100DA0009E3F510580F00C9427060C9472065F3F1D
:100DB000E4F3983ED4F3869577956795B795F795C4
:100DC000E7959F5FC1F7FE2B880F911D969587953C
:100DD00097F908950E940306880B990B0895A1E2E4
:100DE0001A2EAA1BBB1BFD010DC0AA1FBB1FEE1FA5
:100DF000FF1FA217B307E407F50720F0A21BB30BF0
:100E0000E40BF50B661F771F881F991F1A9469F76B
:100E100060957095809590959B01AC01BD01CF01C7
:100E20000895EE0FFF1F0590F491E02D0994F894BA
:020E3000FFCFF2
:100E320000000000BD0038015F00040190006E0058
:100E420082006E616E00696E66006F7666002044F5
:100E52006567726565732043000D0A00204465676B
:080E6200726565732046000073
:00000001FF
