:100000000C945D000C9485000C9485000C94850084
:100010000C9485000C9485000C9485000C9485004C
:100020000C9485000C9485000C9485000C9485003C
:100030000C9485000C9485000C9485000C9485002C
:100040000C94FE020C9485000C94CC020C94A60235
:100050000C9485000C9485000C9485000C9485000C
:100060000C9485000C94850000000008000201003B
:100070000003040700000000000000000000000072
:10008000250028002B0000000000240027002A0083
:10009000040404040404040402020202020203032E
:1000A0000303030301020408102040800102040836
:1000B0001020010204081020720411241FBECFEF8B
:1000C000D8E0DEBFCDBF11E0A0E0B1E0E8EEF9E09E
:1000D00002C005900D92A631B107D9F721E0A6E143
:1000E000B1E001C01D92A03CB207E1F710E0CDE500
:1000F000D0E004C02197FE010E94EC04CC35D1076A
:10010000C9F70E9448030C949F040C94000090E0EF
:10011000FC01EC55FF4F249180579F4FFC018491C7
:10012000882399F090E0880F991FFC01EA57FF4F50
:10013000A591B491FC01E458FF4F859194918FB73C
:10014000F894EC91E22BEC938FBF0895FC01538D52
:10015000448D252F30E0842F90E0821B930B5417A1
:1001600010F0CF96089501970895FC01918D828D2E
:10017000981761F0A28DAE0FBF2FB11D5D968C91C7
:10018000928D9F5F9F73928F90E008958FEF9FEF06
:100190000895FC01918D828D981731F0828DE80FC2
:1001A000F11D858D90E008958FEF9FEF0895FC017C
:1001B000918D228D892F90E0805C9F4F821B910949
:1001C0008F7399270895FC01A48DA80FB92FB11D35
:1001D000A35ABF4F2C91848D90E001968F7399277D
:1001E000848FA689B7892C93A089B1898C9180646A
:1001F0008C93938D848D981306C00288F389E02D2B
:1002000080818F7D80830895EF92FF920F931F93DB
:10021000CF93DF93EC01F62E81E0888F9B8D8C8D40
:10022000981316C0E889F989808185FF11C0EE898D
:10023000FF896083E889F98980818064808381E017
:1002400090E0DF91CF911F910F91FF90EF90089573
:100250000B8D10E00F5F1F4F0F731127E02E8C8D59
:100260008E110CC00FB607FCFACFE889F98980819E
:1002700085FFF5CFCE010E94E300F1CFEB8DEC0FAF
:10028000FD2FF11DE35AFF4FF0820B8FEA89FB89A6
:1002900080818062D3CFCF93DF93EC01888D882358
:1002A000B9F0AA89BB89E889F9898C9185FD03C0D9
:1002B000808186FD0DC00FB607FCF7CF8C9185FFBE
:1002C000F2CF808185FFEDCFCE010E94E300E9CF20
:1002D000DF91CF91089583E291E00E94D70021E061
:1002E000892B09F420E0822F089580E090E0892B8B
:1002F00029F00E946B0181110C9400000895AF92C7
:10030000BF92CF92DF92EF92FF920F931F93CF9302
:10031000DF936C017B018B01040F151FEB015E0164
:10032000AE18BF08C017D10759F06991D601ED91F9
:10033000FC910190F081E02DC6010995892B79F798
:10034000C501DF91CF911F910F91FF90EF90DF904A
:10035000CF90BF90AF90089590E0FC01E859FF4F17
:100360002491FC01EC55FF4F3491FC01E057FF4F05
:10037000E491EE23C9F0222339F0233001F1A8F4EF
:10038000213019F1223029F1F0E0EE0FFF1FE4587F
:10039000FF4FA591B4918FB7F894EC91611126C0ED
:1003A00030953E233C938FBF08952730A9F0283025
:1003B000C9F0243049F7809180008F7D03C080917F
:1003C00080008F7780938000DFCF84B58F7784BDE6
:1003D000DBCF84B58F7DFBCF8091B0008F7780938A
:1003E000B000D2CF8091B0008F7DF9CF3E2BDACF15
:1003F0003FB7F89480911B0190911C01A0911D01C1
:10040000B0911E0126B5A89B05C02F3F19F001969B
:10041000A11DB11D3FBFBA2FA92F982F8827BC015E
:10042000CD01620F711D811D911D42E0660F771F86
:10043000881F991F4A95D1F708958F929F92AF9286
:10044000BF92CF92DF92EF92FF926B017C010E94EC
:10045000F8014B015C01C114D104E104F104B9F0CD
:100460000E94F801681979098A099B09683E73405E
:100470008105910580F321E0C21AD108E108F10855
:1004800088EE880E83E0981EA11CB11CE4CFFF907B
:10049000EF90DF90CF90BF90AF909F908F90089596
:1004A0008F929F92AF92BF920F931F93CF93DF9340
:1004B000CDB7DEB7A1970FB6F894DEBF0FBECDBFA4
:1004C00019A2423008F44AE08E010F5D1F4F842EBE
:1004D000912CB12CA12CA50194010E94CA04E62FF5
:1004E000B901CA01EA3044F5E05DD801EE938D010F
:1004F000232B242B252B79F790E080E0109769F0CF
:10050000FD0101900020E9F73197AF014A1B5B0B19
:10051000BD0183E291E00E947F01A1960FB6F8949D
:10052000DEBF0FBECDBFDF91CF911F910F91BF9066
:10053000AF909F908F900895E95CD7CF42E050E054
:1005400062E171E083E291E00C947F011F920F92CF
:100550000FB60F9211242F933F934F935F936F9396
:100560007F938F939F93AF93BF93EF93FF9383E218
:1005700091E00E94E300FF91EF91BF91AF919F91B5
:100580008F917F916F915F914F913F912F910F903C
:100590000FBE0F901F9018951F920F920FB60F92DB
:1005A00011242F938F939F93EF93FF93E091330147
:1005B000F09134018081E0913901F0913A0182FD9E
:1005C0001BC0908180913C018F5F8F7320913D0112
:1005D000821741F0E0913C01F0E0ED5DFE4F958F18
:1005E00080933C01FF91EF919F918F912F910F90FC
:1005F0000FBE0F901F9018958081F4CF1F920F921D
:100600000FB60F9211242F933F938F939F93AF9325
:10061000BF938091170190911801A0911901B09199
:100620001A013091160123E0230F2D3758F501965A
:10063000A11DB11D209316018093170190931801FD
:10064000A0931901B0931A0180911B0190911C0194
:10065000A0911D01B0911E010196A11DB11D8093B5
:100660001B0190931C01A0931D01B0931E01BF912B
:10067000AF919F918F913F912F910F900FBE0F904F
:100680001F90189526E8230F0296A11DB11DD2CF09
:10069000789484B5826084BD84B5816084BD85B55D
:1006A000826085BD85B5816085BD80916E00816069
:1006B00080936E001092810080918100826080930F
:1006C0008100809181008160809381008091800011
:1006D0008160809380008091B10084608093B1003C
:1006E0008091B00081608093B00080917A00846036
:1006F00080937A0080917A00826080937A00809162
:100700007A00816080937A0080917A00806880937B
:100710007A001092C1008BE00E9487008AE00E945C
:10072000870089E00E94870088E00E94870087E0B8
:100730000E94870086E00E94870085E00E94870073
:1007400084E00E94870083E00E94870082E00E948C
:100750008700E0913301F091340182E08083E091E1
:100760002F01F09130011082E0913101F0913201BE
:100770008FEC808310923B01E0913701F0913801BA
:1007800086E08083E0913501F091360180818061BF
:100790008083E0913501F09136018081886080830B
:1007A000E0913501F0913601808180688083E0918D
:1007B0003501F091360180818F7D808390E4892E10
:1007C00022E3922E08EE13E032E0E32EF12C4AE011
:1007D000A42EB12C50E0C52E50E0D52E80927C0086
:1007E00080917A00806480937A0080917A0086FDFF
:1007F000FCCF8091780020917900322F282F929E93
:10080000B001939E700D112477FF02C061507C4FA0
:10081000672F770F770B659565956F5F7F4FC801E1
:100820000E94B60470932201609321012901032ED6
:10083000000C660877084AE0C301B20137FF0DC01B
:100840006DE283E291E00E94040166277727CB01E5
:1008500064197509860997094AE00E9450020E94AE
:100860009E02609121017091220190E080E04AE0B7
:100870000E9450020E949E02F0922001E0921F010D
:10088000C0911F01D0912001CC30D105FCF461E072
:100890008C2F0E94AC018091210190912201B50121
:1008A0000E94A2042B01712C612CC3010E941D0225
:1008B00060E08C2F0E94AC01C301B2010E941D02B6
:1008C0002196D0932001C0931F01DACFC114D10427
:1008D00009F484CF0E946B01882309F47FCF0E9422
:1008E00000007CCFE3E2F1E01382128288EE93E015
:1008F000A0E0B0E084839583A683B78384E091E091
:100900009183808385EC90E09587848784EC90E0E8
:100910009787868780EC90E0918B808B81EC90E0CC
:10092000938B828B82EC90E0958B848B86EC90E0AD
:10093000978B868B118E128E138E148E0895F894D9
:100940000C94F204AA1BBB1B51E107C0AA1FBB1FDA
:10095000A617B70710F0A61BB70B881F991F5A954B
:10096000A9F780959095BC01CD01089597FB072EBE
:1009700016F4009407D077FD09D00E94A20407FC6A
:1009800005D03EF4909581959F4F0895709561959F
:100990007F4F0895A1E21A2EAA1BBB1BFD010DC0BB
:1009A000AA1FBB1FEE1FFF1FA217B307E407F5071F
:1009B00020F0A21BB30BE40BF50B661F771F881FFB
:1009C000991F1A9469F760957095809590959B0191
:1009D000AC01BD01CF010895EE0FFF1F0590F4910A
:0809E000E02D0994F894FFCF0B
:1009E8000000000004017F01A6004B01D700B500FC
:0609F800C9000D0A000019
:00000001FF
